:10000000FDC0000017C100000C941F0913C10000BF
:1000100011C100000FC100000DC100000BC10000A4
:1000200009C1000007C1000005C1000003C10000B4
:1000300001C10000FFC0000036C60000FBC0000088
:10004000F9C00000F7C00000F5C00000F3C00000D8
:100050000C946B09EFC00000EDC00000EBC0000085
:10006000E9C00000E7C00000E5C00000E3C00000F8
:10007000E1C00000DFC00000DDC00000DBC0000008
:10008000D9C00000D7C00000D5C00000D3C0000018
:10009000D1C00000CFC00000CDC00000CBC0000028
:1000A000C9C00000C7C00000C5C00000C3C0000038
:1000B000C1C00000BFC00000BDC00000BBC0000048
:1000C000B9C00000B7C00000B5C00000B3C0000058
:1000D000B1C00000AFC00000ADC00000ABC0000068
:1000E000A9C00000A7C00000A5C00000A3C0000078
:1000F000A1C000009FC000009DC000009BC0000088
:100100000C94D2080C94F80895C0000093C000002D
:1001100091C000008FC000008DC000008BC00000A7
:1001200089C0000087C0000085C0000083C00000B7
:1001300081C000007FC000007DC000007BC00000C7
:1001400079C0000077C0000075C0000073C00000D7
:1001500071C000006FC000006DC000006BC00000E7
:1001600069C0000067C0000065C0000063C00000F7
:1001700061C000005FC000005DC000005BC0000007
:1001800059C0000057C0000055C0000053C0000017
:1001900051C000004FC000004DC000004BC0000027
:1001A00049C0000047C0000045C0000043C0000037
:1001B00041C000003FC000003DC000003BC0000047
:1001C00039C0000037C0000035C0000033C0000057
:1001D00031C000002FC000002DC000002BC0000067
:1001E00029C0000027C0000025C0000023C0000077
:1001F00021C000006FC100001DC0000011241FBEFF
:10020000CFEFCDBFDFE2DEBF11E2A0E0B0E2E8E673
:10021000F5E102C005900D92A031B107D9F725E2B2
:10022000A0E1B1E201C01D92AF3AB207E1F737D5C4
:100230000C94B20AE5CECF93DF93EC01DC01139668
:100240009C01265F3F4FE0E09D91E927F0E0E05000
:10025000F04EE081A217B307B9F7EA87DF91CF919B
:100260000895089580932F21282F2F7030E040911A
:10027000C6045091C7048823E4F464E8629FC00177
:10028000639F900D11248E589E4D80932B21909347
:100290002C21C90182959295907F9827807F98277D
:1002A00008969A01280F391F20932D2130932E2173
:1002B000089564E8629FC001639F900D1124805DE2
:1002C0009E4D80932B2190932C2122953295307F47
:1002D0003227207F3227240F351F20932D21309382
:1002E0002E2108951F93CF93DF93D82F162FC42F5D
:1002F000B9DFE0912D21F0912E211182E0912D2185
:10030000F0912E21DD23A4F01082E0912D21F091B7
:100310002E211183E0912D21F0912E211282138242
:1003200080912B2190912C218483958340E014C0EF
:1003300082E08083E0912D21F0912E211183E091C4
:100340002D21F0912E211282138280912B219091E8
:100350002C21848395834C2FFC01E05CFF4F40836C
:100360003196108281E0DF91CF911F91089520E0B6
:1003700030E0A0ECB4E01696ED91FC911797C9011E
:1003800082959295907F9827807F9827E80FF91F94
:10039000118616964D915C911797FA01E80FF91F97
:1003A00011822F5F3F4F2530310529F70895809145
:1003B000172480FF04C088E38093440002C0109299
:1003C00044008091172483FF06C0E0E4F0E08481BC
:1003D0008160848305C0E0E4F0E0848183608483ED
:1003E0006CD072D0E0ECF4E080818F7780838081E4
:1003F000806880831092222110921E211092202169
:1004000010921F218091172480FF04C080818F7B70
:10041000808305C0E0ECF4E080818064808348E064
:1004200068E480E85FDF48E068E480E05BDFE0EC00
:10043000F4E0808580648087818181608183089574
:10044000CF93DF93809317242FB7F894C0ECD1E0BB
:1004500082E08A87EAE1F0E0E491A0ECB4E0DA9689
:10046000EC93DA97EBE1F0E0E491DB96EC93DB9729
:100470001A8685EC93E28E7F16968D939C93179740
:1004800084E18C938091172482FF04C083E08093E1
:10049000C8040BC08091172481FF04C082E08093C0
:1004A000C80403C081E08093C8042FBF81E080931B
:1004B00021217DDFDF91CF910895E0ECF4E080858C
:1004C0008370808711860895E0ECF4E08FEF8287D7
:1004D000848708951F920F920FB60F9211242F93C5
:1004E0003F934F935F936F937F938F939F93AF93BC
:1004F000BF93EF93FF938091CA04882344F48091C3
:10050000C804882324F480E88093CA04AADE80917A
:10051000CA0486FF06C080E48093CA041092222198
:10052000C0D38091CA0485FF15C080E28093CA04BD
:1005300080911E21882321F084E08093222109C02C
:100540008091C304811102C081E001C083E08093E7
:100550002221A8D38091CA0484FF14C0E0ECF4E007
:1005600080E1828782E08093222110921E211382F3
:10057000FEDE48E068E480E8B5DE48E068E480E05C
:10058000B1DE6FDEFF91EF91BF91AF919F918F919F
:100590007F916F915F914F913F912F910F900FBE7F
:1005A0000F901F901895E0ECF8E09281928383837E
:1005B00082818823ECF78091C30808951F93CF931D
:1005C000DF93C0E4D6E010E11E8380ECECDF1D83F6
:1005D000DF91CF911F9108951F93CF93DF93C0E6D2
:1005E000D6E010E11E8380ECDEDF1D83DF91CF912A
:1005F0001F9108951F93CF93DF93C0E2D6E018E0D8
:100600001E8380ECD0DF1D83DF91CF911F91089571
:100610001F93CF93DF93182FD62FC42F85E0C3DF0E
:10062000812FC1DF8D2FBFDF8C2FBDDFDF91CF91F9
:100630001F9108951F93CF93DF93213039F4C0E4C5
:10064000D6E010E11E83E4DF1D8311C0223039F4AF
:10065000C0E6D6E010E11E83DBDF1D8308C0233037
:1006600031F4C0E2D6E018E01E83D2DF1D83DF91B3
:10067000CF911F9108951F93CF93DF93C0E4D6E0ED
:1006800010E11E83C5DF1D83DF91CF911F91089577
:100690001F93CF93DF93C0E6D6E010E11E83B8DF4F
:1006A0001D83DF91CF911F9108951F93CF93DF9307
:1006B000C0E2D6E018E01E83ABDF1D83DF91CF914F
:1006C0001F910895813039F018F0823039F0089583
:1006D00081E869CF089582E866CF089584E863CF02
:1006E00008951F93CF93DF93C0E4D6E010E11E83FB
:1006F000E9DF1D83DF91CF911F9108951F93CF9361
:10070000DF93C0E6D6E010E11E83DCDF1D83DF91BE
:10071000CF911F9108951F93CF93DF93C0E2D6E04E
:1007200018E01E83CFDF1D83DF91CF911F910895C5
:100730000F931F93CF938B01880F805C34DFF801F8
:1007400080819181969587959695879596958795C1
:100750002ADFF80180818295880F807E24DF80E087
:1007600022DF80E020DFF80182818F701CDFF8013A
:100770008281882359F0C0E0F801EC0FF11D8381DC
:1007800012DFCF5FF8018281C817B0F3CF911F91BC
:100790000F9108951F93CF93DF93C0E4D6E010E14B
:1007A0001E83C6DF1D83DF91CF911F9108951F9394
:1007B000CF93DF93C0E6D6E010E11E83B9DF1D833F
:1007C000DF91CF911F9108951F93CF93DF93C0E2E4
:1007D000D6E018E01E83ACDF1D83DF91CF911F911F
:1007E00008950F931F93CF93DF938B01DCDE80E09E
:1007F000DADE98E0899FE001112480E0D4DE829562
:1008000086958770C82B80E0CEDE80E0CCDEF801D4
:10081000C083D18380E0C7DE8F70F8018283882394
:1008200061F0C0E080E0BFDEF801EC0FF11D8383D2
:10083000CF5FF8018281C817A8F381E0DF91CF91E3
:100840001F910F9108951F93CF93DF93C0E4D6E0DB
:1008500010E11E83C6DF1D83DF91CF911F910895A4
:100860001F93CF93DF93C0E6D6E010E11E83B9DF7C
:100870001D83DF91CF911F9108951F93CF93DF9335
:10088000C0E2D6E018E01E83ACDF1D83DF91CF917C
:100890001F910895413011F4D6CF0895423011F4DC
:1008A000DFCF0895433011F4E8CF089580E0089534
:1008B0000F931F93CF93DF93082FC0E4D6E010E18E
:1008C0001E8383E070DE802F6EDE80E06CDE1D8391
:1008D000DF91CF911F910F9108950F931F93CF93A5
:1008E000DF93082FC0E6D6E010E11E8383E05BDED5
:1008F000802F59DE80E057DE1D83DF91CF911F915D
:100900000F9108950F931F93CF93DF93082FC0E2A9
:10091000D6E018E01E8383E046DE802F44DE80E0D0
:1009200042DE1D83DF91CF911F910F9108956130B9
:1009300011F4BECF0895623011F4CFCF0895E2CF05
:100940000895FF920F931F93CF93DF93F82E062FF6
:10095000C0E4D6E010E11E8382E025DE8F2D23DE89
:10096000802F21DE1D83DF91CF911F910F91FF908A
:100970000895FF920F931F93CF93DF93F82E062FC6
:10098000C0E6D6E010E11E8382E00DDE8F2D0BDE87
:10099000802F09DE1D83DF91CF911F910F91FF9072
:1009A0000895FF920F931F93CF93DF93F82E062F96
:1009B000C0E2D6E018E01E8382E0F5DD8F2DF3DD86
:1009C000802FF1DD1D83DF91CF911F910F91FF905B
:1009D00008951F93CF93DF93E0E4F6E090EA9183CC
:1009E00090E49283A0E6B6E092E011969C93119772
:1009F0009093810698E0918320E1218311962C93B6
:100A00009093210690ED9093C008662309F47EC070
:100A1000C82F80E1809345068093650688E0809327
:100A200025068FE193E00197F1F700C00000C6DDD5
:100A3000D3DDE0DD8FE39FE10197F1F700C0000017
:100A40008FE036DFD82F8FE048DF182F8FE05ADF96
:100A5000D295D695D770D43009F05AC01295169514
:100A60001770143009F056C08295869587708430CF
:100A700009F052C08FE193E00197F1F700C0000048
:100A800060E08AE25EDF60E08AE273DF60E08AE2D3
:100A900088DF67EE89E255DF67EE89E26ADF67EE9D
:100AA00089E27FDF61E088E24CDF61E088E261DFBC
:100AB00061E088E276DF44E064E080E6DCDD44E08B
:100AC00064E080E6E5DD44E064E080E6EEDD63EAD4
:100AD0008BE237DF63EA8BE24CDF63EA8BE261DFB4
:100AE0004C2F60EE8FE0C7DD4C2F60EE8FE0D0DD45
:100AF0004C2F60EE8FE0D9DD82E080936606809314
:100B0000860688E08093460681E007C081E005C044
:100B100080E003C080E001C080E0DF91CF911F91B1
:100B20000895413011F40DCF0895423011F421CFD2
:100B3000089537CF0895CF93DF93E0E5F0E080810B
:100B400082608083818181FFFDCFA0E5B0E01696B1
:100B50008C911697846016968C931697C0E6D0E019
:100B600080E88D838BEB8E8380EC91E022E0FC01AA
:100B70002287EDE1F0E0E491EA83ECE1F0E0E4913A
:100B8000EB83FC01128681E08883E0E7F0E085E1F9
:100B9000808383E0818394E5938393E5948390E558
:100BA0009583809321068BEC12968C9312978C91EF
:100BB00088608C93E0E5F0E0818183FFFDCFE0E584
:100BC000F0E082EC8583808180618083818184FF75
:100BD000FDCF88ED84BF84E080934000E0E0FAE040
:100BE00081E0808393E1918321E030E020A731A769
:100BF00026A337A38093810693E090934906E0E60D
:100C0000F6E02FE0218782872BE1208B30E23387CB
:100C1000258BE0E4F8E0808320E83CE026A337A3BE
:100C20009683E0E0F8E0808320E03DE726A337A349
:100C3000968380932606C8E7D0E0888183FF04C0AE
:100C400061E080E0C6DE03C061E080E0C2DE8111C9
:100C50000AC0FFEF29EF80E0F15020408040E1F72B
:100C600000C00000EACF25E888ED90E0A2EAB0E0FD
:100C70001BBEFD0184BF20832BBE80E0E1DB93E03F
:100C800088ED08B618BE84BF9093800080918200E2
:100C900081FDFCCF08BE7894DF91CF9108954BDFA2
:100CA000FFCF089508951F920F920FB60F9211244F
:100CB0008F939F93A8958091022190910321019792
:100CC0008093022190930321809100219091012132
:100CD0008436910521F41092002110920121809117
:100CE000022190910321892B19F482E0809326063A
:100CF0009F918F910F900FBE0F901F90189590911C
:100D00001421809115219817F1F080E3D1DD83FD46
:100D10001AC06091152181E0860F809315218BE028
:100D2000689FB001112461507B4D80E033DD80E08D
:100D3000D8DC9091152180911421981304C0109251
:100D40001421109215210895EF92FF920F931F9393
:100D5000CF93DF93CDB7DEB72B97CDBFDEBFE98250
:100D6000FA820B831C832D833E834F8358876987C8
:100D70007A878B87A091142181E08A0F80931421B8
:100D80009BE0A99FD0011124A150BB4D9BE0FE0127
:100D9000319601900D929A95E1F7803118F08FE02D
:100DA00080931421ACDF2B96CDBFDEBFDF91CF91B6
:100DB0001F910F91FF90EF900895909112218091D3
:100DC00013219817F1F080E388DD83FD1AC060914C
:100DD000132181E0860F809313218BE0689FB0017F
:100DE0001124615B7B4D80E0E2DC80E087DC909148
:100DF000132180911221981304C010921221109295
:100E000013210895EF92FF920F931F93CF93DF93D7
:100E1000CDB7DEB72B97CDBFDEBFE982FA820B8359
:100E20001C832D833E834F83588769877A878B87FE
:100E3000A091122181E08A0F809312219BE0A99F4B
:100E4000D0011124A15BBB4D9BE0FE0131960190C6
:100E50000D929A95E1F7803118F08FE0809312217E
:100E6000ACDF2B96CDBFDEBFDF91CF911F910F91ED
:100E7000FF90EF900895CF92DF92EF92FF920F9341
:100E80001F93CF93DF93CDB7DEB72B97CDBFDEBFD8
:100E9000C82E682F8CE24BDDD82E837009F45BC11D
:100EA000D1FE0CC04C2DBE016F5F7F4F84E9F2DC98
:100EB0002C2D40E062E08CE2BDDB0BC04C2DBE016E
:100EC0006F5F7F4F80E9E6DC2C2D40E061E08CE233
:100ED000B1DB89819A81843D21E09207A9F120F458
:100EE0008A31914059F01BC18A3D21E0920709F4F3
:100EF0008DC08C30954009F4D0C011C18C81807FA9
:100F0000803249F018F48823C9F01BC0803339F0CF
:100F1000803449F016C082E08093172100C183E03D
:100F200080931721FCC08D8184FF04C085E08093ED
:100F30001721F5C084E080931721F1C0109217218A
:100F4000EEC010921721EBC08E8190E0982F882779
:100F50002F81822B80931C2190931D2180911C2135
:100F600090911D21929582958F7089279F70892776
:100F700080931C2190931D2180911C2190911D2113
:100F8000809318219093192180911C2190911D210B
:100F900093FDC5C080911721843009F0C0C08091B5
:100FA0001C2190911D2102970CF4B9C060911C2165
:100FB00070911D21072E000C880B990BE4D120E0C5
:100FC00030E040EB5FE343D2ABD160931C217093E0
:100FD0001D2180911C2190911D2182959295907FD9
:100FE0009827807F982780931C2190931D218091C2
:100FF0001C2190911D219E8380911C2190911D2187
:10100000807F8F83CE01019616D989C08E8190E0B2
:10101000982F88272F81822B80931A2190931B2150
:1010200080911A2190911B21977080931A2190939F
:101030001B2180911A2190911B2192FD70C08091FB
:101040001721843009F06BC080911A2190911B21E7
:101050008B3591050CF463C06091182170911921B2
:10106000072E000C880B990B8ED120E030E040E079
:101070005FE3EDD155D160931A2170931B218091CC
:101080001A2190911B219E8380911A2190911B21FE
:101090008F83CE010196CFD842C081E0C81218C01C
:1010A000E0900521F0900621009107211091082180
:1010B0002091092130910A2140910B2150910C215E
:1010C00060910D2170910E2180910F219BDE17C040
:1010D000E0900521F0900621009107211091082150
:1010E0002091092130910A2140910B2150910C212E
:1010F00060910D2170910E2180910F2125DE80914C
:1011000004218F5F8093042180910421803518F0A1
:1011100080E480930421809104218093082121E0C0
:10112000C2120DC0E980FA800B811C812D813E81A5
:101130004F81588569857A858B8564DE0CC0E9808E
:10114000FA800B811C812D813E814F8158856985F4
:101150007A858B85F9DD8D2D807AB1F06C2D8DE24D
:10116000E6DB182F807C21F04C2D60E08DE2D9DC8D
:10117000112319F082E0809325066D2D607E21F009
:101180002C2D40E08CE256DA109216212B96CDBF22
:10119000DEBFDF91CF911F910F91FF90EF90DF9015
:1011A000CF9008951F920F920FB60F9211242F9394
:1011B0003F934F935F936F937F938F939F93AF93DF
:1011C000BF93EF93FF9381E08093162154DEFF914C
:1011D000EF91BF91AF919F918F917F916F915F91AF
:1011E0004F913F912F910F900FBE0F901F90189528
:1011F0001F920F920FB60F9211242F933F934F938C
:101200005F936F937F938F939F93AF93BF93EF936E
:10121000FF9381E08093162182E02DDEFF91EF9114
:10122000BF91AF919F918F917F916F915F914F91FE
:101230003F912F910F900FBE0F901F9018951F9206
:101240000F920FB60F9211242F933F934F935F93FA
:101250006F937F938F939F93AF93BF93EF93FF937E
:1012600081E08093162183E006DEFF91EF91BF912C
:10127000AF919F918F917F916F915F914F913F912E
:101280002F910F900FBE0F901F90189590911021E5
:10129000809111219817F1F080E334DB83FD1AC0AF
:1012A0006091112181E0860F809311218BE0689F6E
:1012B000B0011124685E7B4D80E086DA80E02BDA95
:1012C0009091112180911021981304C01092102147
:1012D0001092112108951F920F920FB60F921124B0
:1012E0002F933F934F935F936F937F938F939F932E
:1012F000AF93BF93EF93FF9302DD5FDDC7DFFF91F5
:10130000EF91BF91AF919F918F917F916F915F917D
:101310004F913F912F910F900FBE0F901F901895F6
:1013200004D06894B1118DC0089570D088F09F5793
:1013300090F0B92F9927B751A0F0D1F0660F771F21
:10134000881F991F1AF0BA95C9F712C0B13081F001
:1013500077D0B1E0089574C0672F782F8827B85FE1
:1013600039F0B93FCCF3869577956795B395D9F762
:101370003EF490958095709561957F4F8F4F9F4F6C
:101380000895E89409C097FB3EF490958095709578
:1013900061957F4F8F4F9F4F9923A9F0F92F96E9C1
:1013A000BB279395F695879577956795B795F11136
:1013B000F8CFFAF4BB0F11F460FF1BC06F5F7F4FD3
:1013C0008F4F9F4F16C0882311F096E911C07723E5
:1013D00021F09EE8872F762F05C0662371F096E8EE
:1013E000862F70E060E02AF09A95660F771F881FBD
:1013F000DAF7880F9695879597F9089557FD9058D5
:10140000440F551F59F05F3F71F04795880F97FBC8
:10141000991F61F09F3F79F0879508951216130682
:101420001406551FF2CF4695F1DF08C016161706B1
:101430001806991FF1CF86957105610508940895E6
:10144000E894BB2766277727CB0197F908950BD03F
:1014500078C069D028F06ED018F0952309F05AC0F2
:101460005FC01124EECFCADFA0F3959FD1F3950F93
:1014700050E0551F629FF001729FBB27F00DB11D18
:10148000639FAA27F00DB11DAA1F649F6627B00DA8
:10149000A11D661F829F2227B00DA11D621F739F91
:1014A000B00DA11D621F839FA00D611D221F749F9F
:1014B0003327A00D611D231F849F600D211D822FE6
:1014C000762F6A2F11249F5750408AF0E1F088232D
:1014D0004AF0EE0FFF1FBB1F661F771F881F91503A
:1014E0005040A9F79E3F510570F014C0AACF5F3F4E
:1014F000ECF3983EDCF3869577956795B795F7956D
:10150000E7959F5FC1F7FE2B880F911D96958795F4
:1015100097F9089597F99F6780E870E060E0089573
:101520009FEF80EC089500240A94161617061806FB
:101530000906089500240A941216130614060506D7
:101540000895092E0394000C11F4882352F0BB0F68
:1015500040F4BF2B11F460FF04C06F5F7F4F8F4FCB
:081560009F4F0895F894FFCF9E
:1015680000858F0A9B1E1491B3363CB928ADA7227B
:10157800E3666CE978FDF77250D5DF5ACB4E44C16B
:1015880043C6CC49D85D57D2F0757FFA6BEEE4615B
:10159800A0252FAA3BBEB43113969C19880D07824B
:1015A8008603098C1D98921735B0BA3FAE2B21A43B
:1015B80065E0EA6FFE7B71F4D65359DC4DC8C2472B
:1015C800C5404ACF5EDBD15476F3F97CED6862E71B
:1015D80026A3A92CBD3832B795101A9F0E8B81040B
:1015E800890C068312979D183ABFB530A1242EABFB
:1015F8006AEFE560F1747EFBD95C56D342C7CD48EB
:10160800CA4F45C051D4DE5B79FCF673E2676DE8DA
:1016180029ACA623B2373DB89A1F159001848E0BCA
:101628000F8A800594111B9EBC3933B627A2A82DBA
:10163800EC6963E677F2F87D5FDAD055C4414BCEAA
:101648004CC9C346D75258DDFF7A70F564E1EB6E9A
:10165800AF2A20A534B1BB3E1C9993168702088D8A
:101668000100010040B90401400000000000000032
:00000001FF
