S01B000063616E2D6272696467652D696E7665727465722E73726563A1
S1130000FDC0000017C100000C94AC0813C100002F
S113001011C100000FC100000DC100000BC10000A0
S113002009C1000007C1000005C1000003C10000B0
S113003001C10000FFC0000036C60000FBC0000084
S1130040F9C00000F7C00000F5C00000F3C00000D4
S11300500C94F808EFC00000EDC00000EBC00000F5
S1130060E9C00000E7C00000E5C00000E3C00000F4
S1130070E1C00000DFC00000DDC00000DBC0000004
S1130080D9C00000D7C00000D5C00000D3C0000014
S1130090D1C00000CFC00000CDC00000CBC0000024
S11300A0C9C00000C7C00000C5C00000C3C0000034
S11300B0C1C00000BFC00000BDC00000BBC0000044
S11300C0B9C00000B7C00000B5C00000B3C0000054
S11300D0B1C00000AFC00000ADC00000ABC0000064
S11300E0A9C00000A7C00000A5C00000A3C0000074
S11300F0A1C000009FC000009DC000009BC0000084
S1130100DEC700000C94850895C0000093C0000071
S113011091C000008FC000008DC000008BC00000A3
S113012089C0000087C0000085C0000083C00000B3
S113013081C000007FC000007DC000007BC00000C3
S113014079C0000077C0000075C0000073C00000D3
S113015071C000006FC000006DC000006BC00000E3
S113016069C0000067C0000065C0000063C00000F3
S113017061C000005FC000005DC000005BC0000003
S113018059C0000057C0000055C0000053C0000013
S113019051C000004FC000004DC000004BC0000023
S11301A049C0000047C0000045C0000043C0000033
S11301B041C000003FC000003DC000003BC0000043
S11301C039C0000037C0000035C0000033C0000053
S11301D031C000002FC000002DC000002BC0000063
S11301E029C0000027C0000025C0000023C0000073
S11301F021C000006FC100001DC0000011241FBEFB
S1130200CFEFCDBFDFE2DEBF11E2A0E0B0E2EEE36C
S1130210F2E102C005900D92A430B107D9F725E2AE
S1130220A4E0B1E201C01D92A13AB207E1F737D5CB
S11302300C941D09E5CECF93DF93EC01DC011396FA
S11302409C01265F3F4FE0E09D91E927F0E0E050FC
S1130250F04EE081A217B307B9F7EA87DF91CF9197
S11302600895089580932121282F2F7030E0409124
S1130270C6045091C7048823E4F464E8629FC00173
S1130280639F900D11248C599E4D80931D21909352
S11302901E21C90182959295907F9827807F982787
S11302A008969A01280F391F20931F21309320218B
S11302B0089564E8629FC001639F900D11248E5DD0
S11302C09E4D80931D2190931E2122953295307F5F
S11302D03227207F3227240F351F20931F2130938C
S11302E0202108951F93CF93DF93D82F162FC42F67
S11302F0B9DFE0911F21F09120211182E0911F21AB
S1130300F0912021DD23A4F01082E0911F21F091CF
S113031020211183E0911F21F09120211282138268
S113032080911D2190911E218483958340E014C007
S113033082E08083E0911F21F09120211183E091DC
S11303401F21F09120211282138280911D2190910E
S11303501E21848395834C2FFC01E05CFF4F408376
S11303603196108281E0DF91CF911F91089520E0B2
S113037030E0A0ECB4E01696ED91FC911797C9011A
S113038082959295907F9827807F9827E80FF91F90
S1130390118616964D915C911797FA01E80FF91F93
S11303A011822F5F3F4F2530310529F70895809141
S11303B0092480FF04C088E38093440002C01092A3
S11303C044008091092483FF06C0E0E4F0E08481C6
S11303D08160848305C0E0E4F0E0848183608483E9
S11303E06CD072D0E0ECF4E080818F7780838081E0
S11303F0806880831092142110921021109212218F
S1130400109211218091092480FF04C080818F7B88
S1130410808305C0E0ECF4E080818064808348E060
S113042068E480E85FDF48E068E480E05BDFE0ECFC
S1130430F4E0808580648087818181608183089570
S1130440CF93DF93809309242FB7F894C0ECD1E0C5
S113045082E08A87EAE1F0E0E491A0ECB4E0DA9685
S1130460EC93DA97EBE1F0E0E491DB96EC93DB9725
S11304701A8687EB93E28E7F16968D939C9317973B
S113048084E18C938091092482FF04C083E08093EB
S1130490C8040BC08091092481FF04C082E08093CA
S11304A0C80403C081E08093C8042FBF81E0809317
S11304B013217DDFDF91CF910895E0ECF4E0808596
S11304C08370808711860895E0ECF4E08FEF8287D3
S11304D0848708951F920F920FB60F9211242F93C1
S11304E03F934F935F936F937F938F939F93AF93B8
S11304F0BF93EF93FF938091CA04882344F48091BF
S1130500C804882324F480E88093CA04AADE809176
S1130510CA0486FF06C080E48093CA0410921421A2
S1130520C0D38091CA0485FF15C080E28093CA04B9
S113053080911021882321F084E08093142109C044
S11305408091C304811102C081E001C083E08093E3
S11305501421A8D38091CA0484FF14C0E0ECF4E011
S113056080E1828782E0809314211092102113820B
S1130570FEDE48E068E480E8B5DE48E068E480E058
S1130580B1DE6FDEFF91EF91BF91AF919F918F919B
S11305907F916F915F914F913F912F910F900FBE7B
S11305A00F901F901895E0ECF8E09281928383837A
S11305B082818823ECF78091C30808951F93CF9319
S11305C0DF93C0E4D6E010E11E8380ECECDF1D83F2
S11305D0DF91CF911F9108951F93CF93DF93C0E6CE
S11305E0D6E010E11E8380ECDEDF1D83DF91CF9126
S11305F01F9108951F93CF93DF93C0E2D6E018E0D4
S11306001E8380ECD0DF1D83DF91CF911F9108956D
S11306101F93CF93DF93182FD62FC42F85E0C3DF0A
S1130620812FC1DF8D2FBFDF8C2FBDDFDF91CF91F5
S11306301F9108951F93CF93DF93213039F4C0E4C1
S1130640D6E010E11E83E4DF1D8311C0223039F4AB
S1130650C0E6D6E010E11E83DBDF1D8308C0233033
S113066031F4C0E2D6E018E01E83D2DF1D83DF91AF
S1130670CF911F9108951F93CF93DF93C0E4D6E0E9
S113068010E11E83C5DF1D83DF91CF911F91089573
S11306901F93CF93DF93C0E6D6E010E11E83B8DF4B
S11306A01D83DF91CF911F9108951F93CF93DF9303
S11306B0C0E2D6E018E01E83ABDF1D83DF91CF914B
S11306C01F910895813039F018F0823039F008957F
S11306D081E869CF089582E866CF089584E863CFFE
S11306E008951F93CF93DF93C0E4D6E010E11E83F7
S11306F0E9DF1D83DF91CF911F9108951F93CF935D
S1130700DF93C0E6D6E010E11E83DCDF1D83DF91BA
S1130710CF911F9108951F93CF93DF93C0E2D6E04A
S113072018E01E83CFDF1D83DF91CF911F910895C1
S11307300F931F93CF938B01880F805C34DFF801F4
S113074080819181969587959695879596958795BD
S11307502ADFF80180818295880F807E24DF80E083
S113076022DF80E020DFF80182818F701CDFF80136
S11307708281882359F0C0E0F801EC0FF11D8381D8
S113078012DFCF5FF8018281C817B0F3CF911F91B8
S11307900F9108951F93CF93DF93C0E4D6E010E147
S11307A01E83C6DF1D83DF91CF911F9108951F9390
S11307B0CF93DF93C0E6D6E010E11E83B9DF1D833B
S11307C0DF91CF911F9108951F93CF93DF93C0E2E0
S11307D0D6E018E01E83ACDF1D83DF91CF911F911B
S11307E008950F931F93CF93DF938B01DCDE80E09A
S11307F0DADE98E0899FE001112480E0D4DE82955E
S113080086958770C82B80E0CEDE80E0CCDEF801D0
S1130810C083D18380E0C7DE8F70F8018283882390
S113082061F0C0E080E0BFDEF801EC0FF11D8383CE
S1130830CF5FF8018281C817A8F381E0DF91CF91DF
S11308401F910F9108951F93CF93DF93C0E4D6E0D7
S113085010E11E83C6DF1D83DF91CF911F910895A0
S11308601F93CF93DF93C0E6D6E010E11E83B9DF78
S11308701D83DF91CF911F9108951F93CF93DF9331
S1130880C0E2D6E018E01E83ACDF1D83DF91CF9178
S11308901F910895413011F4D6CF0895423011F4D8
S11308A0DFCF0895433011F4E8CF089580E0089530
S11308B00F931F93CF93DF93082FC0E4D6E010E18A
S11308C01E8383E070DE802F6EDE80E06CDE1D838D
S11308D0DF91CF911F910F9108950F931F93CF93A1
S11308E0DF93082FC0E6D6E010E11E8383E05BDED1
S11308F0802F59DE80E057DE1D83DF91CF911F9159
S11309000F9108950F931F93CF93DF93082FC0E2A5
S1130910D6E018E01E8383E046DE802F44DE80E0CC
S113092042DE1D83DF91CF911F910F9108956130B5
S113093011F4BECF0895623011F4CFCF0895E2CF01
S11309400895FF920F931F93CF93DF93F82E062FF2
S1130950C0E4D6E010E11E8382E025DE8F2D23DE85
S1130960802F21DE1D83DF91CF911F910F91FF9086
S11309700895FF920F931F93CF93DF93F82E062FC2
S1130980C0E6D6E010E11E8382E00DDE8F2D0BDE83
S1130990802F09DE1D83DF91CF911F910F91FF906E
S11309A00895FF920F931F93CF93DF93F82E062F92
S11309B0C0E2D6E018E01E8382E0F5DD8F2DF3DD82
S11309C0802FF1DD1D83DF91CF911F910F91FF9057
S11309D008951F93CF93DF93E0E4F6E090EA9183C8
S11309E090E49283A0E6B6E092E011969C9311976E
S11309F09093810698E0918320E1218311962C93B2
S1130A009093210690ED9093C008662309F47EC06C
S1130A10C82F80E1809345068093650688E0809323
S1130A2025068FE193E00197F1F700C00000C6DDD1
S1130A30D3DDE0DD8FE39FE10197F1F700C0000013
S1130A408FE036DFD82F8FE048DF182F8FE05ADF92
S1130A50D295D695D770D43009F05AC01295169510
S1130A601770143009F056C08295869587708430CB
S1130A7009F052C08FE193E00197F1F700C0000044
S1130A8060E08AE25EDF60E08AE273DF60E08AE2CF
S1130A9088DF67EE89E255DF67EE89E26ADF67EE99
S1130AA089E27FDF61E088E24CDF61E088E261DFB8
S1130AB061E088E276DF44E064E080E6DCDD44E087
S1130AC064E080E6E5DD44E064E080E6EEDD63EAD0
S1130AD08BE237DF63EA8BE24CDF63EA8BE261DFB0
S1130AE04C2F60EE8FE0C7DD4C2F60EE8FE0D0DD41
S1130AF04C2F60EE8FE0D9DD82E080936606809310
S1130B00860688E08093460681E007C081E005C040
S1130B1080E003C080E001C080E0DF91CF911F91AD
S1130B200895413011F40DCF0895423011F421CFCE
S1130B30089537CF0895CF93DF93E0E5F0E0808107
S1130B4082608083818181FFFDCFA0E5B0E01696AD
S1130B508C911697846016968C931697C0E6D0E015
S1130B6080E88D838BEB8E8380EC91E022E0FC01A6
S1130B702287EDE1F0E0E491EA83ECE1F0E0E49136
S1130B80EB83FC01128681E08883E0E7F0E085E1F5
S1130B90808383E0818394E5938393E5948390E554
S1130BA09583809321068BEC12968C9312978C91EB
S1130BB088608C93E0E5F0E0818183FFFDCFE0E580
S1130BC0F0E082EC8583808180618083818184FF71
S1130BD0FDCF88ED84BF84E080934000E0E0FAE03C
S1130BE081E0808393E1918321E030E020A731A765
S1130BF026A337A38093810693E090934906E0E609
S1130C00F6E02FE0218782872BE1208B30E23387C7
S1130C10258BE0E4F8E0808320E83CE026A337A3BA
S1130C209683E0E0F8E0808320E03DE726A337A345
S1130C30968380932606C8E7D0E0888183FF04C0AA
S1130C4061E080E0C6DE03C061E080E0C2DE8111C5
S1130C500AC0FFEF29EF80E0F15020408040E1F727
S1130C6000C00000EACF25E888ED90E0A2EAB0E0F9
S1130C701BBEFD0184BF20832BBE80E0E1DB93E03B
S1130C8088ED08B618BE84BF9093800080918200DE
S1130C9081FDFCCF08BE7894DF91CF9108954BDF9E
S1130CA0FFCF089508951F920F920FB60F9211244B
S1130CB08F939F93A895809102219091032101978E
S1130CC0809302219093032180910021909101212E
S1130CD08436910521F41092002110920121809113
S1130CE0022190910321892B19F482E08093260636
S1130CF09F918F910F900FBE0F901F901895909118
S1130D000821809109219817F1F080E3D1DD83FD5A
S1130D101AC06091092181E0860F809309218BE03C
S1130D20689FB00111246F507B4D80E033DD80E07B
S1130D30D8DC9091092180910821981304C0109265
S1130D400821109209210895EF92FF920F931F93A7
S1130D50CF93DF93CDB7DEB72B97CDBFDEBFE9824C
S1130D60FA820B831C832D833E834F8358876987C4
S1130D707A878B87A091082181E08A0F80930821CC
S1130D809BE0A99FD0011124AF50BB4D9BE0FE0115
S1130D90319601900D929A95E1F7803118F08FE029
S1130DA080930821ACDF2B96CDBFDEBFDF91CF91BE
S1130DB01F910F91FF90EF900895909106218091DB
S1130DC007219817F1F080E388DD83FD1AC0609154
S1130DD0072181E0860F809307218BE0689FB00193
S1130DE011246F5B7B4D80E0E2DC80E087DC909136
S1130DF0072180910621981304C0109206211092B5
S1130E0007210895EF92FF920F931F93CF93DF93DF
S1130E10CDB7DEB72B97CDBFDEBFE982FA820B8355
S1130E201C832D833E834F83588769877A878B87FA
S1130E30A091062181E08A0F809306219BE0A99F5F
S1130E40D0011124AF5BBB4D9BE0FE0131960190B4
S1130E500D929A95E1F7803118F08FE08093062186
S1130E60ACDF2B96CDBFDEBFDF91CF911F910F91E9
S1130E70FF90EF900895CF92DF92EF92FF920F933D
S1130E801F93CF93DF93CDB7DEB72B97CDBFDEBFD4
S1130E90C82E682F8CE24BDDD82E837009F4E8C08D
S1130EA0D1FE0CC04C2DBE016F5F7F4F84E9F2DC94
S1130EB02C2D40E062E08CE2BDDB0BC04C2DBE016A
S1130EC06F5F7F4F80E9E6DC2C2D40E061E08CE22F
S1130ED0B1DB89819A81843D21E0920779F18A3DD1
S1130EE031E0930709F47BC08A31914009F0A4C032
S1130EF08C81807F803249F018F48823C9F01BC0AC
S1130F00803339F0803449F016C082E080930B219D
S1130F1093C083E080930B218FC08D8184FF04C034
S1130F2085E080930B2188C084E080930B2184C0EA
S1130F3010920B2181C010920B217EC08E8190E013
S1130F40982F88272F81822B80930E2190930F2135
S1130F5080910E2190910F21929582958F7089270F
S1130F609F70892780930E2190930F2180910E21E9
S1130F7090910F2193FD60C080910B21843009F082
S1130F805BC080910E2190910F21873F93400CF418
S1130F9053C080910E2190910F21449680930E218D
S1130FA090930F2180910E2190910F21829592951B
S1130FB0907F9827807F982780930E2190930F210C
S1130FC080910E2190910F219E8380910E2190910A
S1130FD00F21807F8F83CE0101962DD92DC02E81C4
S1130FE0822F90E0982F88273F81832B80930C21B8
S1130FF090930D2180910C2190910D2197708093F5
S11310000C2190930D2180910C2190910D2192FD42
S113101013C080910B21843079F480910C2190913C
S11310200D218E3F914044F0287F2F5F2E838AEF5D
S11310308F83CE010196FFD881E0C8120DC0E980EC
S1131040FA800B811C812D813E814F8158856985F1
S11310507A858B85D7DE0CC0E980FA800B811C81F0
S11310602D813E814F81588569857A858B856CDE1B
S11310708D2D807AB1F06C2D8DE259DC182F807C97
S113108021F04C2D60E08DE24CDD112319F082E05B
S1131090809325066D2D607E21F02C2D40E08CE29E
S11310A0C9DA10920A212B96CDBFDEBFDF91CF9112
S11310B01F910F91FF90EF90DF90CF9008951F92B2
S11310C00F920FB60F9211242F933F934F935F9378
S11310D06F937F938F939F93AF93BF93EF93FF93FC
S11310E081E080930A21C7DEFF91EF91BF91AF9118
S11310F09F918F917F916F915F914F913F912F912C
S11311000F900FBE0F901F9018951F920F920FB65D
S11311100F9211242F933F934F935F936F937F9379
S11311208F939F93AF93BF93EF93FF9381E080934B
S11311300A2182E0A0DEFF91EF91BF91AF919F91D0
S11311408F917F916F915F914F913F912F910F906C
S11311500FBE0F901F9018951F920F920FB60F920B
S113116011242F933F934F935F936F937F938F93A8
S11311709F93AF93BF93EF93FF9381E080930A21F2
S113118083E079DEFF91EF91BF91AF919F918F91B1
S11311907F916F915F914F913F912F910F900FBE6F
S11311A00F901F9018959091042180910521981714
S11311B0F1F080E3A7DB83FD1AC06091052181E093
S11311C0860F809305218BE0689FB0011124665F30
S11311D07B4D80E0F9DA80E09EDA909105218091E0
S11311E00421981304C0109204211092052108953B
S11311F01F920F920FB60F9211242F933F934F9388
S11312005F936F937F938F939F93AF93BF93EF936A
S1131210FF9375DDD2DDC7DFFF91EF91BF91AF91F1
S11312209F918F917F916F915F914F913F912F91FA
S11112300F900FBE0F901F901895F894FFCFEB
S113123E00858F0A9B1E1491B3363CB928ADA722A4
S113124EE3666CE978FDF77250D5DF5ACB4E44C194
S113125E43C6CC49D85D57D2F0757FFA6BEEE46184
S113126EA0252FAA3BBEB43113969C19880D078274
S113127E8603098C1D98921735B0BA3FAE2B21A464
S113128E65E0EA6FFE7B71F4D65359DC4DC8C24754
S113129EC5404ACF5EDBD15476F3F97CED6862E744
S11312AE26A3A92CBD3832B795101A9F0E8B810434
S11312BE890C068312979D183ABFB530A1242EAB24
S11312CE6AEFE560F1747EFBD95C56D342C7CD4814
S11312DECA4F45C051D4DE5B79FCF673E2676DE804
S11312EE29ACA623B2373DB89A1F159001848E0BF4
S11312FE0F8A800594111B9EBC3933B627A2A82DE4
S113130EEC6963E677F2F87D5FDAD055C4414BCED3
S113131E4CC9C346D75258DDFF7A70F564E1EB6EC3
S113132EAF2A20A534B1BB3E1C9993168702088DB3
S107133E01000100A5
S9030000FC
