:10000000FDC0000017C100000C94E20C13C10000F9
:1000100011C100000FC100000DC100000BC10000A4
:1000200009C1000007C1000005C1000003C10000B4
:1000300001C10000FFC0000036C60000FBC0000088
:10004000F9C00000F7C00000F5C00000F3C00000D8
:100050000C94310DEFC00000EDC00000EBC00000BB
:10006000E9C00000E7C00000E5C00000E3C00000F8
:10007000E1C00000DFC00000DDC00000DBC0000008
:10008000D9C00000D7C00000D5C00000D3C0000018
:10009000D1C00000CFC00000CDC00000CBC0000028
:1000A000C9C00000C7C00000C5C00000C3C0000038
:1000B000C1C00000BFC00000BDC00000BBC0000048
:1000C000B9C00000B7C00000B5C00000B3C0000058
:1000D000B1C00000AFC00000ADC00000ABC0000068
:1000E000A9C00000A7C00000A5C00000A3C0000078
:1000F000A1C000009FC000009DC000009BC0000088
:100100000C94950C0C94BB0C95C0000093C000009F
:1001100091C000008FC000008DC000008BC00000A7
:1001200089C0000087C0000085C0000083C00000B7
:1001300081C000007FC000007DC000007BC00000C7
:1001400079C0000077C0000075C0000073C00000D7
:1001500071C000006FC000006DC000006BC00000E7
:1001600069C0000067C0000065C0000063C00000F7
:1001700061C000005FC000005DC000005BC0000007
:1001800059C0000057C0000055C0000053C0000017
:1001900051C000004FC000004DC000004BC0000027
:1001A00049C0000047C0000045C0000043C0000037
:1001B00041C000003FC000003DC000003BC0000047
:1001C00039C0000037C0000035C0000033C0000057
:1001D00031C000002FC000002DC000002BC0000067
:1001E00029C0000027C0000025C0000023C0000077
:1001F00021C000006FC100001DC0000011241FBEFF
:10020000CFEFCDBFDFE2DEBF11E2A0E0B0E2E2E17E
:10021000FDE102C005900D92AC3AB107D9F726E294
:10022000ACEAB1E201C01D92A835B207E1F737D5BB
:100230000C94870EE5CECF93DF93EC01DC0113968F
:100240009C01265F3F4FE0E09D91E927F0E0E05000
:10025000F04EE081A217B307B9F7EA87DF91CF919B
:10026000089508958093D821282F2F7030E0409171
:10027000C6045091C7048823E4F464E8629FC00177
:10028000639F900D1124855E9D4D8093D4219093A2
:10029000D521C90182959295907F9827807F9827D4
:1002A00008969A01280F391F2093D6213093D72121
:1002B000089564E8629FC001639F900D11248752E6
:1002C0009E4D8093D4219093D52122953295307FF5
:1002D0003227207F3227240F351F2093D6213093D9
:1002E000D72108951F93CF93DF93D82F162FC42FB4
:1002F000B9DFE091D621F091D7211182E091D6218A
:10030000F091D721DD23A4F01082E091D621F09165
:10031000D7211183E091D621F091D7211282138247
:100320008091D4219091D5218483958340E014C09D
:1003300082E08083E091D621F091D7211183E09172
:10034000D621F091D721128213828091D4219091ED
:10035000D521848395834C2FFC01E05CFF4F4083C3
:100360003196108281E0DF91CF911F91089520E0B6
:1003700030E0A0ECB4E01696ED91FC911797C9011E
:1003800082959295907F9827807F9827E80FF91F94
:10039000118616964D915C911797FA01E80FF91F97
:1003A00011822F5F3F4F2530310529F70895809145
:1003B000C02480FF04C088E38093440002C01092F0
:1003C00044008091C02483FF06C0E0E4F0E0848113
:1003D0008160848305C0E0E4F0E0848183608483ED
:1003E0006CD072D0E0ECF4E080818F7780838081E4
:1003F000806880831092CB211092C7211092C9216E
:100400001092C8218091C02480FF04C080818F7B1E
:10041000808305C0E0ECF4E080818064808348E064
:1004200068E480E85FDF48E068E480E05BDFE0EC00
:10043000F4E0808580648087818181608183089574
:10044000CF93DF938093C0242FB7F894C0ECD1E012
:1004500082E08A87EAE1F0E0E491A0ECB4E0DA9689
:10046000EC93DA97EBE1F0E0E491DB96EC93DB9729
:100470001A868EE694E28E7F16968D939C9317973C
:1004800084E18C938091C02482FF04C083E0809338
:10049000C8040BC08091C02481FF04C082E0809317
:1004A000C80403C081E08093C8042FBF81E080931B
:1004B000CA217DDFDF91CF910895E0ECF4E08085E3
:1004C0008370808711860895E0ECF4E08FEF8287D7
:1004D000848708951F920F920FB60F9211242F93C5
:1004E0003F934F935F936F937F938F939F93AF93BC
:1004F000BF93EF93FF938091CA04882344F48091C3
:10050000C804882324F480E88093CA04AADE80917A
:10051000CA0486FF06C080E48093CA041092CB21EF
:10052000C0D38091CA0485FF15C080E28093CA04BD
:100530008091C721882321F084E08093CB2109C0DA
:100540008091C304811102C081E001C083E08093E7
:10055000CB21A8D38091CA0484FF14C0E0ECF4E05E
:1005600080E1828782E08093CB211092C7211382A1
:10057000FEDE48E068E480E8B5DE48E068E480E05C
:10058000B1DE6FDEFF91EF91BF91AF919F918F919F
:100590007F916F915F914F913F912F910F900FBE7F
:1005A0000F901F901895E0ECF8E09281928383837E
:1005B00082818823ECF78091C30808951F93CF931D
:1005C000DF93C0E4D6E010E11E8380ECECDF1D83F6
:1005D000DF91CF911F9108951F93CF93DF93C0E6D2
:1005E000D6E010E11E8380ECDEDF1D83DF91CF912A
:1005F0001F9108951F93CF93DF93C0E2D6E018E0D8
:100600001E8380ECD0DF1D83DF91CF911F91089571
:100610001F93CF93DF93182FD62FC42F85E0C3DF0E
:10062000812FC1DF8D2FBFDF8C2FBDDFDF91CF91F9
:100630001F9108951F93CF93DF93213039F4C0E4C5
:10064000D6E010E11E83E4DF1D8311C0223039F4AF
:10065000C0E6D6E010E11E83DBDF1D8308C0233037
:1006600031F4C0E2D6E018E01E83D2DF1D83DF91B3
:10067000CF911F9108951F93CF93DF93C0E4D6E0ED
:1006800010E11E83C5DF1D83DF91CF911F91089577
:100690001F93CF93DF93C0E6D6E010E11E83B8DF4F
:1006A0001D83DF91CF911F9108951F93CF93DF9307
:1006B000C0E2D6E018E01E83ABDF1D83DF91CF914F
:1006C0001F910895813039F018F0823039F0089583
:1006D00081E869CF089582E866CF089584E863CF02
:1006E00008951F93CF93DF93C0E4D6E010E11E83FB
:1006F000E9DF1D83DF91CF911F9108951F93CF9361
:10070000DF93C0E6D6E010E11E83DCDF1D83DF91BE
:10071000CF911F9108951F93CF93DF93C0E2D6E04E
:1007200018E01E83CFDF1D83DF91CF911F910895C5
:100730000F931F93CF938B01880F805C34DFF801F8
:1007400080819181969587959695879596958795C1
:100750002ADFF80180818295880F807E24DF80E087
:1007600022DF80E020DFF80182818F701CDFF8013A
:100770008281882359F0C0E0F801EC0FF11D8381DC
:1007800012DFCF5FF8018281C817B0F3CF911F91BC
:100790000F9108951F93CF93DF93C0E4D6E010E14B
:1007A0001E83C6DF1D83DF91CF911F9108951F9394
:1007B000CF93DF93C0E6D6E010E11E83B9DF1D833F
:1007C000DF91CF911F9108951F93CF93DF93C0E2E4
:1007D000D6E018E01E83ACDF1D83DF91CF911F911F
:1007E00008950F931F93CF93DF938B01DCDE80E09E
:1007F000DADE98E0899FE001112480E0D4DE829562
:1008000086958770C82B80E0CEDE80E0CCDEF801D4
:10081000C083D18380E0C7DE8F70F8018283882394
:1008200061F0C0E080E0BFDEF801EC0FF11D8383D2
:10083000CF5FF8018281C817A8F381E0DF91CF91E3
:100840001F910F9108951F93CF93DF93C0E4D6E0DB
:1008500010E11E83C6DF1D83DF91CF911F910895A4
:100860001F93CF93DF93C0E6D6E010E11E83B9DF7C
:100870001D83DF91CF911F9108951F93CF93DF9335
:10088000C0E2D6E018E01E83ACDF1D83DF91CF917C
:100890001F910895413011F4D6CF0895423011F4DC
:1008A000DFCF0895433011F4E8CF089580E0089534
:1008B0000F931F93CF93DF93082FC0E4D6E010E18E
:1008C0001E8383E070DE802F6EDE80E06CDE1D8391
:1008D000DF91CF911F910F9108950F931F93CF93A5
:1008E000DF93082FC0E6D6E010E11E8383E05BDED5
:1008F000802F59DE80E057DE1D83DF91CF911F915D
:100900000F9108950F931F93CF93DF93082FC0E2A9
:10091000D6E018E01E8383E046DE802F44DE80E0D0
:1009200042DE1D83DF91CF911F910F9108956130B9
:1009300011F4BECF0895623011F4CFCF0895E2CF05
:100940000895FF920F931F93CF93DF93F82E062FF6
:10095000C0E4D6E010E11E8382E025DE8F2D23DE89
:10096000802F21DE1D83DF91CF911F910F91FF908A
:100970000895FF920F931F93CF93DF93F82E062FC6
:10098000C0E6D6E010E11E8382E00DDE8F2D0BDE87
:10099000802F09DE1D83DF91CF911F910F91FF9072
:1009A0000895FF920F931F93CF93DF93F82E062F96
:1009B000C0E2D6E018E01E8382E0F5DD8F2DF3DD86
:1009C000802FF1DD1D83DF91CF911F910F91FF905B
:1009D00008951F93CF93DF93E0E4F6E090EA9183CC
:1009E00090E49283A0E6B6E092E011969C93119772
:1009F0009093810698E0918320E1218311962C93B6
:100A00009093210690ED9093C008662309F47EC070
:100A1000C82F80E1809345068093650688E0809327
:100A200025068FE193E00197F1F700C00000C6DDD5
:100A3000D3DDE0DD8FE39FE10197F1F700C0000017
:100A40008FE036DFD82F8FE048DF182F8FE05ADF96
:100A5000D295D695D770D43009F05AC01295169514
:100A60001770143009F056C08295869587708430CF
:100A700009F052C08FE193E00197F1F700C0000048
:100A800060E08AE25EDF60E08AE273DF60E08AE2D3
:100A900088DF67EE89E255DF67EE89E26ADF67EE9D
:100AA00089E27FDF61E088E24CDF61E088E261DFBC
:100AB00061E088E276DF44E064E080E6DCDD44E08B
:100AC00064E080E6E5DD44E064E080E6EEDD63EAD4
:100AD0008BE237DF63EA8BE24CDF63EA8BE261DFB4
:100AE0004C2F60EE8FE0C7DD4C2F60EE8FE0D0DD45
:100AF0004C2F60EE8FE0D9DD82E080936606809314
:100B0000860688E08093460681E007C081E005C044
:100B100080E003C080E001C080E0DF91CF911F91B1
:100B20000895413011F40DCF0895423011F421CFD2
:100B3000089537CF0895CF93DF93E0E5F0E080810B
:100B400082608083818181FFFDCFA0E5B0E01696B1
:100B50008C911697846016968C931697C0E6D0E019
:100B600080E88D838BEB8E8380EC91E022E0FC01AA
:100B70002287EDE1F0E0E491EA83ECE1F0E0E4913A
:100B8000EB83FC01128681E08883E0E7F0E085E1F9
:100B9000808383E0818394E5938393E5948390E558
:100BA0009583809321068BEC12968C9312978C91EF
:100BB00088608C93E0E5F0E0818183FFFDCFE0E584
:100BC000F0E082EC8583808180618083818184FF75
:100BD000FDCF88ED84BF84E080934000E0E0FAE040
:100BE00081E0808393E1918321E030E020A731A769
:100BF00026A337A38093810693E090934906E0E60D
:100C0000F6E02FE0218782872BE1208B30E23387CB
:100C1000258BE0E4F8E0808320E83CE026A337A3BE
:100C20009683E0E0F8E0808320E03DE726A337A349
:100C3000968380932606C8E7D0E0888183FF04C0AE
:100C400061E080E0C6DE03C061E080E0C2DE8111C9
:100C50000AC0FFEF29EF80E0F15020408040E1F72B
:100C600000C00000EACF25E888ED90E0A2EAB0E0FD
:100C70001BBEFD0184BF20832BBE80E0E1DB93E03F
:100C800088ED08B618BE84BF9093800080918200E2
:100C900081FDFCCF08BE7894DF91CF9108954BDFA2
:100CA000FFCF089508951F920F920FB60F9211244F
:100CB000A8950F900FBE0F901F9018959091B0219E
:100CC0008091B1219817F1F080E3F2DD83FD1AC025
:100CD0006091B12181E0860F8093B1218BE0689F04
:100CE000B001112468557A4D80E054DD80E0F9DCD4
:100CF0009091B1218091B021981304C01092B0213D
:100D00001092B1210895EF92FF920F931F93CF930A
:100D1000DF93CDB7DEB72B97CDBFDEBFE982FA8276
:100D20000B831C832D833E834F83588769877A8783
:100D30008B87A091B02181E08A0F8093B0219BE046
:100D4000A99FD0011124A855BA4D9BE0FE01319610
:100D500001900D929A95E1F7803118F08FE0809321
:100D6000B021ACDF2B96CDBFDEBFDF91CF911F91BD
:100D70000F91FF90EF9008959091AE218091AF2157
:100D80009817F1F080E3A9DD83FD1AC06091AF21CF
:100D900081E0860F8093AF218BE0689FB001112422
:100DA00068507B4D80E003DD80E0A8DC9091AF21AE
:100DB0008091AE21981304C01092AE211092AF2101
:100DC0000895EF92FF920F931F93CF93DF93CDB7C8
:100DD000DEB72B97CDBFDEBFE982FA820B831C837F
:100DE0002D833E834F83588769877A878B87A091AD
:100DF000AE2181E08A0F8093AE219BE0A99FD001B4
:100E00001124A850BB4D9BE0FE01319601900D923C
:100E10009A95E1F7803118F08FE08093AE21ACDF36
:100E20002B96CDBFDEBFDF91CF911F910F91FF9029
:100E3000EF900895CF92DF92EF92FF920F931F935E
:100E4000CF93DF93CDB7DEB72B97CDBFDEBFC82ED4
:100E5000682F8CE26CDDD82E837009F45FC4D1FE5C
:100E60000CC04C2DBE016F5F7F4F84E913DD2C2D2C
:100E700040E062E08CE2DEDB0BC04C2DBE016F5F18
:100E80007F4F80E907DD2C2D40E061E08CE2D2DB72
:100E900089819A81843822E0920709F435C1A0F44F
:100EA000843D21E0920709F447C020F48A31914043
:100EB00021F118C48A3D21E0920709F4DEC0823F87
:100EC000914009F44EC20EC48B3525E0920709F417
:100ED00086C328F48C30954009F45AC103C4803A83
:100EE00025E0920729F08330964009F49AC3FAC3AB
:100EF0008C8183708093BC21F5C38C81807F80328C
:100F000049F018F4882391F014C0803339F080340C
:100F100049F00FC082E08093BE21E4C383E0809358
:100F2000BE21E0C384E08093BE21DCC31092BE21C9
:100F3000D9C31092BE21D6C38E8190E0982F882706
:100F40002F81822B8093C5219093C6218091C5214A
:100F50009091C621929582958F7089279F708927DD
:100F60008093C5219093C6218091C5219091C6217F
:100F70008093C1219093C2218091BC21823009F4D9
:100F8000B1C38091BE21843009F0ACC38091C521EA
:100F90009091C621811598400CF43FC08091C521E5
:100FA0009091C62198508093C5219093C62160915D
:100FB000C5217091C621072E000C880B990BA9D56D
:100FC00026E636E646E85FE308D670D56093C5218D
:100FD0007093C6218091C5219091C621985F80931E
:100FE000C5219093C6218091C5219091C6218295FB
:100FF0009295907F9827807F98278093C521909322
:10100000C6218091C5219091C6219E838091C521E2
:101010009091C621807F8F832CC06091C5217091F3
:10102000C621072E000C880B990B73D529E23CE5ED
:101030004FEA5FE3D2D53AD56093C5217093C621BC
:101040008091C5219091C62182959295907F982795
:10105000807F98278093C5219093C6218091C521D8
:101060009091C6219E838091C5219091C621807F59
:101070008F83CE010196DFD835C38E81877090E0D3
:10108000982F88272F81822B8093C3219093C4218E
:101090008091C3219091C42197708093C321909334
:1010A000C4218091BC21823009F41CC38091BE21EF
:1010B000843009F017C38091C3219091C421811518
:1010C00094400CF00FC36091C1217091C221072E92
:1010D000000C880B990B1DD520E030E040E05FE369
:1010E0007CD5E4D46093C3217093C4218091C32143
:1010F0009091C4219E838091C3219091C4218F83BC
:10110000CE01019698D8EEC28091BD21803209F4BB
:10111000E9C28091B8218F5F8093B8218091B82176
:10112000823008F4DFC21092B82181E0C81218C0E2
:10113000E0907B21F0907C2100917D2110917E2117
:1011400020917F21309180214091812150918221F5
:1011500060918321709184218091852132DEC5C206
:10116000E0907B21F0907C2100917D2110917E21E7
:1011700020917F21309180214091812150918221C5
:10118000609183217091842180918521BCDDBAC258
:10119000809143218F5F809343218091432180354B
:1011A00018F080E48093432180914321809347216C
:1011B00021E0C2121DC0E0904421F0904521009131
:1011C0004621109147212091482130914921409199
:1011D0004A2150914B2160914C2170914D21809179
:1011E0004E21EFDD8091BD21803209F006C37DC222
:1011F000E0904421F0904521009146211091472133
:10120000209148213091492140914A2150914B2110
:1012100060914C2170914D2180914E2174DD80911F
:10122000BD21803209F02FC36DC28091B4218F5F40
:101230008093B4218091B4218F3010F01092B421AA
:101240008091B421809305218091B321882331F0CE
:101250001092B32188EC8093042106C081E0809332
:10126000B32188EE809304218091B5218F5F809314
:10127000B5218091B521853008F434C21092B52192
:1012800081E0C81234C0E0906521F09066210091A1
:101290006721109168212091692130916A21409144
:1012A0006B2150916C2160916D2170916E21809124
:1012B0006F2187DDE0904F21F09050210091512166
:1012C0001091522120915321309154214091552168
:1012D0005091562160915721709158218091592148
:1012E00070DD8091B621882309F435C237C0E090C3
:1012F0006521F0906621009167211091682120916D
:10130000692130916A2140916B2150916C2160914B
:101310006D2170916E2180916F21F5DCE0904F215D
:10132000F090502100915121109152212091532190
:10133000309154214091552150915621609157216F
:101340007091582180915921DEDC8091B621811164
:1013500005C02AC282E08093B721C4C11092B62191
:10136000C1C18E818093BD218091BD21803209F45D
:10137000B9C121E0C2125DC0E0903821F09039215E
:1013800000913A2110913B2120913C2130913D2147
:1013900040913E2150913F21609140217091412127
:1013A000809142210EDDE0902C21F0902D210091C2
:1013B0002E2110912F212091302130913121409107
:1013C00032215091332160913421709135218091E7
:1013D0003621F7DCE0902121F09022210091232199
:1013E00010912421209125213091262140912721FF
:1013F000509128216091292170912A2180912B21DF
:10140000E0DCE0901621F090172100911821109156
:10141000192120911A2130911B2140911C215091BA
:101420001D2160911E2170911F2180912021C9DC16
:101430005CC0E0903821F090392100913A21109160
:101440003B2120913C2130913D2140913E21509102
:101450003F2160914021709141218091422153DCD4
:10146000E0902C21F0902D2100912E2110912F2120
:1014700020913021309131214091322150913321FE
:101480006091342170913521809136213CDCE090CF
:101490002121F090222100912321109124212091DB
:1014A00025213091262140912721509128216091BA
:1014B000292170912A2180912B2125DCE090162191
:1014C000F0901721009118211091192120911A21D3
:1014D00030911B2140911C2150911D2160911E21B2
:1014E00070911F21809120210EDC8091BB218F5FA4
:1014F0008093BB218091BB21843010F01092BB21DE
:101500008091BB2181110DC0E1E2F1E288E8808782
:101510008DEE8187E6E1F1E280EE848388E68583C3
:1015200032C08091BB21813069F4E1E2F1E289E8C7
:10153000808788E68187E6E1F1E281EE84838DEEA3
:10154000858321C08091BB21823069F4E1E2F1E220
:101550008AE8808782E68187E6E1F1E282EE848391
:1015600087EE858310C08091BB21833061F4E1E276
:10157000F1E28BE8808787EE8187E6E1F1E283EE96
:10158000848382E68583809137218F5F8093372122
:1015900080913721803618F080E580933721809143
:1015A000372180933B218091BA218F5F8093BA21AC
:1015B0008091BA21803110F01092BA21E091BA21C5
:1015C000F0E0EA57FE4D80818093B9218091BA21E5
:1015D000ECE2F1E284838091B921858383C08C8120
:1015E00090E0880F991F880F991F2D8122952695CD
:1015F00026952370822B8093BF219093C021209148
:10160000BF213091C021ADECBCEC72D3969587958B
:1016100096958795969587958093BF219093C02145
:1016200061C081E0C8122FC0E090A121F090A221FA
:101630000091A3211091A4212091A5213091A621F0
:101640004091A7215091A8216091A9217091AA21D0
:101650008091AB21B6DBE0909621F090972100912C
:1016600098211091992120919A2130919B214091AC
:101670009C2150919D2160919E2170919F2180918C
:10168000A0219FDB32C0E090A121F090A221009127
:10169000A3211091A4212091A5213091A621409150
:1016A000A7215091A8216091A9217091AA21809130
:1016B000AB2129DBE0909621F090972100919821B1
:1016C0001091992120919A2130919B2140919C2148
:1016D00050919D2160919E2170919F218091A02128
:1016E00012DB10C021E0C2120DC0E980FA800B812C
:1016F0001C812D813E814F81588569857A858B8536
:1017000060DB0CC0E980FA800B811C812D813E8159
:101710004F81588569857A858B85F5DA8D2D807A9C
:10172000B9F06C2D8DE203D9182F807C21F04C2D5F
:1017300060E08DE2F6D9112319F082E0809325064E
:101740006D2D607E29F02C2D40E08CE20E941A0362
:101750001092B221DEC081E08093B6218091B72142
:1017600080930F21E0900B21F0900C2100910D212E
:1017700010910E2120910F213091102140911121C3
:1017800050911221609113217091142180911521A3
:1017900018DB8091B7218C5F8093B7218091B721AE
:1017A0008F3E08F0D7CDA1CF81E08093B621809104
:1017B000B72180930F21E0900B21F0900C21009134
:1017C0000D2110910E2120910F2130911021409177
:1017D0001121509112216091132170911421809157
:1017E000152191DA8091B7218C5F8093B721809188
:1017F000B7218F3E08F486CFADCDE0907021F090F8
:1018000071210091722110917321209174213091E6
:1018100075214091762150917721609178217091C6
:10182000792180917A21CDDAE0905A21F0905B21E4
:1018300000915C2110915D2120915E2130915F210A
:1018400040916021509161216091622170916321EA
:1018500080916421B6DAE0900021F090012100919E
:101860000221109103212091042130910521409102
:1018700006215091072160910821709109218091E2
:101880000A219FDAD2CCE0907021F0907121009172
:101890007221109173212091742130917521409112
:1018A00076215091772160917821709179218091F2
:1018B0007A2129DAE0905A21F0905B2100915C2195
:1018C00010915D2120915E2130915F214091602136
:1018D0005091612160916221709163218091642116
:1018E00012DAE0900021F090012100910221109184
:1018F000032120910421309105214091062150912E
:101900000721609108217091092180910A21FBD95A
:101910008CCC2B96CDBFDEBFDF91CF911F910F9165
:10192000FF90EF90DF90CF9008951F920F920FB627
:101930000F9211242F933F934F935F936F937F9355
:101940008F939F93AF93BF93EF93FF9381E0809327
:10195000B22170DAFF91EF91BF91AF919F918F917A
:101960007F916F915F914F913F912F910F900FBE9B
:101970000F901F9018951F920F920FB60F9211247F
:101980002F933F934F935F936F937F938F939F9387
:10199000AF93BF93EF93FF9381E08093B22182E0F6
:1019A00049DAFF91EF91BF91AF919F918F917F9114
:1019B0006F915F914F913F912F910F900FBE0F90BC
:1019C0001F9018951F920F920FB60F9211242F930C
:1019D0003F934F935F936F937F938F939F93AF93B7
:1019E000BF93EF93FF9381E08093B22183E022DAEB
:1019F000FF91EF91BF91AF919F918F917F916F91E7
:101A00005F914F913F912F910F900FBE0F901F90BC
:101A100018959091AC218091AD21981709F180E340
:101A20000E94820483FD1CC06091AD2181E0860F7D
:101A30008093AD218BE0689FB00111246F537B4DE3
:101A400080E00E94E40380E00E948B039091AD212E
:101A50008091AC21981304C01092AC211092AD215A
:101A600008951F920F920FB60F9211242F933F9358
:101A70004F935F936F937F938F939F93AF93BF9396
:101A8000EF93FF931BD978D9C4DFFF91EF91BF91FA
:101A9000AF919F918F917F916F915F914F913F9106
:101AA0002F910F900FBE0F901F90189504D068943F
:101AB000B1118DC0089570D088F09F5790F0B92F64
:101AC0009927B751A0F0D1F0660F771F881F991F93
:101AD0001AF0BA95C9F712C0B13081F077D0B1E0F1
:101AE000089574C0672F782F8827B85F39F0B93F01
:101AF000CCF3869577956795B395D9F73EF4909595
:101B00008095709561957F4F8F4F9F4F0895E89412
:101B100009C097FB3EF490958095709561957F4F35
:101B20008F4F9F4F9923A9F0F92F96E9BB279395E3
:101B3000F695879577956795B795F111F8CFFAF4F3
:101B4000BB0F11F460FF1BC06F5F7F4F8F4F9F4F24
:101B500016C0882311F096E911C0772321F09EE882
:101B6000872F762F05C0662371F096E8862F70E0E8
:101B700060E02AF09A95660F771F881FDAF7880FC2
:101B80009695879597F9089557FD9058440F551FDE
:101B900059F05F3F71F04795880F97FB991F61F0EF
:101BA0009F3F79F087950895121613061406551F66
:101BB000F2CF4695F1DF08C0161617061806991FD2
:101BC000F1CF86957105610508940895E894BB27C7
:101BD00066277727CB0197F908950BD078C069D095
:101BE00028F06ED018F0952309F05AC05FC0112478
:101BF000EECFCADFA0F3959FD1F3950F50E0551FAC
:101C0000629FF001729FBB27F00DB11D639FAA2751
:101C1000F00DB11DAA1F649F6627B00DA11D661FA0
:101C2000829F2227B00DA11D621F739FB00DA11DC1
:101C3000621F839FA00D611D221F749F3327A00D7B
:101C4000611D231F849F600D211D822F762F6A2F17
:101C500011249F5750408AF0E1F088234AF0EE0F9C
:101C6000FF1FBB1F661F771F881F91505040A9F7A9
:101C70009E3F510570F014C0AACF5F3FECF3983E31
:101C8000DCF3869577956795B795F795E7959F5F10
:101C9000C1F7FE2B880F911D9695879597F90895AA
:101CA00097F99F6780E870E060E008959FEF80EC0F
:101CB000089500240A9416161706180609060895B2
:101CC00000240A9412161306140605060895092E18
:101CD0000394000C11F4882352F0BB0F40F4BF2B87
:101CE00011F460FF04C06F5F7F4F8F4F9F4F0895C7
:101CF000A29FB001B39FC001A39F700D811D11244D
:101D0000911DB29F700D811D1124911D0895F894AD
:021D1000FFCF03
:101D120000858F0A9B1E1491B3363CB928ADA722C9
:101D2200E3666CE978FDF77250D5DF5ACB4E44C1B9
:101D320043C6CC49D85D57D2F0757FFA6BEEE461A9
:101D4200A0252FAA3BBEB43113969C19880D078299
:101D52008603098C1D98921735B0BA3FAE2B21A489
:101D620065E0EA6FFE7B71F4D65359DC4DC8C24779
:101D7200C5404ACF5EDBD15476F3F97CED6862E769
:101D820026A3A92CBD3832B795101A9F0E8B810459
:101D9200890C068312979D183ABFB530A1242EAB49
:101DA2006AEFE560F1747EFBD95C56D342C7CD4839
:101DB200CA4F45C051D4DE5B79FCF673E2676DE829
:101DC20029ACA623B2373DB89A1F159001848E0B19
:101DD2000F8A800594111B9EBC3933B627A2A82D09
:101DE200EC6963E677F2F87D5FDAD055C4414BCEF9
:101DF2004CC9C346D75258DDFF7A70F564E1EB6EE9
:101E0200AF2A20A534B1BB3E1C9993168702088DD8
:101E1200B803057FE80107FF000000CD05057A063B
:101E2200F51FC0000000ED0103FFE06800000000A4
:101E320000CB01070009FFCE108BE7000801030069
:101E42000000000000000050C2010150000000002C
:101E520000000040B904014000000000000000EB57
:101E62000508E00FFFFFFFFFFFFFC5050840012F38
:101E72005E00000000EC0501000000000000000010
:101E82002506060200FF1D20000000550308140A63
:101E920013971000400000858F0A9B1E1491B336E1
:101EA2003CB928ADA722070601000000000000008F
:0C1EB20000050601000000000000000018
:00000001FF
